:100000000C945B160C9485160C9485160C9485162E
:100010000C9485160C9485160C9485160C948516F4
:100020000C9485160C9485160C9485160C948516E4
:100030000C9485160C94FC8D0C9485160C948516E6
:100040000C9485160C94567C0C94EFC60C94851673
:100050000C942B680C9485160C9485160C948516BC
:100060000C9485160C9485160C9485160C948516A4
:100070000C9485160C9485160C9485160C94851694
:100080000C94118F0C9485160C9485164E414E4994
:100090004E495459494E46CDCCCC3D0AD7233C1746
:1000A000B7D13877CC2B329595E6241FB14F0A0093
:1000B0000020410000C84200401C4620BCBE4CCA83
:1000C0001B0E5AAEC59D74434F4D4D554E4943418D
:1000D00054494F4E0044525952554E004552524FCA
:1000E000525300494E464F004543484F00656E71DC
:1000F00075657565696E672022004B494C4C454417
:100100002E200053544F505045442E200050726909
:100110006E7465722073746F7070656420647565A9
:1001200020746F206572726F72732E20466978207A
:10013000746865206572726F7220616E64207573D9
:1001400065204D39393920746F207265737461727E
:10015000742E202854656D70657261747572652007
:1001600069732072657365742E20536574206974F9
:100170002061667465722072657374617274696E51
:1001800067290A004E6F20436865636B73756D20A5
:1001900077697468206C696E65206E756D62657232
:1001A0002C204C617374204C696E653A20004E6FB0
:1001B00020436865636B73756D2077697468206C84
:1001C000696E65206E756D6265722C204C6173746A
:1001D000204C696E653A2000636865636B73756DCA
:1001E000206D69736D617463682C204C6173742099
:1001F0004C696E653A20004C696E65204E756D62E3
:100200006572206973206E6F74204C617374204C8A
:10021000696E65204E756D6265722B312C204C61C4
:100220007374204C696E653A20004D313130004DB9
:1002300033310053442072656164206572726F72BD
:100240000A00446F6E65207072696E74696E672073
:1002500066696C650A0020496E76616C6964206588
:100260007874727564657220000000000000000060
:1002700000000000000000614300006143000096A0
:100280004342696C696E656172204C6576656C6984
:100290006E6720477269643A0A0020284452595216
:1002A000554E2900473239204175746F20426564EC
:1002B000204C6576656C696E67003F20284C2C5297
:1002C0002C462C4229206F7574206F6620626F7552
:1002D0006E64732E0A003F2856296572626F73653B
:1002E000206C6576656C20697320696D706C617532
:1002F0007369626C652028302D34292E0A00426112
:1003000064205A2076616C75650A004E6F20626920
:100310006C696E65617220677269640A0044656C7D
:100320006574696F6E206661696C65642C2046692E
:100330006C653A200046696C652064656C6574657F
:10034000643A0050726F7465637465642050696E1E
:100350000A0020573A004520436F6F6C696E672E84
:100360002E2E00452048656174696E672E2E2E0082
:1003700020573A0042656420636F6F6C696E672E88
:100380002E2E004265642068656174696E672E2EAA
:100390002E00205A3A0020593A0020436F756E749F
:1003A00020583A0020453A00205A3A0020593A0095
:1003B000583A003A004361703A00205A0020590030
:1003C000580020204D61783A2000205A0020590022
:1003D000580020204D696E3A20004F6E20004F6675
:1003E0006600536F667420656E6473746F70733A41
:1003F0002000496E76616C6964206578747275645A
:1004000065720A0020643A0020693A0020703A00C0
:1004100023646566696E652044454641554C545FCA
:100420004B64200023646566696E6520444546413F
:10043000554C545F4B69200023646566696E6520E6
:1004400044454641554C545F4B7020005049442070
:100450004175746F74756E652066696E6973686541
:1004600064212050757420746865206C6173742059
:100470004B702C204B6920616E64204B6420636FAD
:100480006E7374616E74732066726F6D2062656C3A
:100490006F7720696E746F20436F6E66696775723F
:1004A0006174696F6E2E680A00504944204175746A
:1004B0006F74756E65206661696C6564212074696E
:1004C0006D656F75740A00453120544845524D41A1
:1004D0004C2052554E4157415900546865726D6128
:1004E0006C2052756E6177617900453120486561F5
:1004F00074696E67206661696C6564004865617443
:10050000696E67206661696C6564005049442041EA
:1005100075746F74756E65206661696C6564212001
:1005200054656D706572617475726520746F6F20AB
:10053000686967680A00204B643A2000204B693ADA
:100540002000204B703A20000A20436C61737369CD
:100550006320504944200A002054753A2000204B63
:10056000753A2000206D61783A2000206D696E3A5E
:10057000200020643A200020626961733A20005014
:100580004944204175746F74756E6520737461728F
:10059000740A00504944204175746F74756E65206B
:1005A0006661696C6564212054656D706572617463
:1005B00075726520746F6F20686967680A0050491A
:1005C00044204175746F74756E65206661696C6551
:1005D00064212042616420657874727564657220BC
:1005E0006E756D6265720A004F66660A0046616448
:1005F00065204865696768742000426564204C6521
:1006000076656C696E6720004661696C656420746C
:100610006F20656E61626C6520426564204C657672
:10062000656C696E670A004F666673657473206156
:1006300070706C696564004572723A20546F6F2067
:100640006661722100546F6F206661722066726F5E
:100650006D207265666572656E636520706F696E88
:10066000740A00496E736572742066696C616D6509
:100670006E7420616E64207072657373206275748D
:10068000746F6E0A00507265737320627574746FB4
:100690006E20746F2068656174206E6F7A7A6C6565
:1006A0000A00496E736572742066696C616D656ECF
:1006B0007420616E64207072657373206275747447
:1006C0006F6E20286F72204D313038290A00536C2C
:1006D0006565702E2E2E00486F6D65205859206676
:1006E000697273740A00486F6D65205859206669F5
:1006F00072737400205A3A200020593A2000426553
:100700006420583A20004D65736820706F696E74DC
:100710002063616E6E6F74206265207265736F6C0A
:100720007665640A00436C69636B20746F207265A0
:1007300073756D652E2E2E004E6F206D6F76652EB3
:1007400000456E642066696C65206C6973740A00EC
:10075000426567696E2066696C65206C6973740A0E
:10076000004D31323500286E6F2066696C652900B6
:1007700043757272656E742066696C653A20005329
:1007800044207072696E74696E67206279746520A6
:10079000004E6F74205344207072696E74696E67E6
:1007A0000A002569730025696D2025697300256994
:1007B000682025696D2025697300256964202569F5
:1007C000682025696D2025697300256979202569D0
:1007D00064202569682025696D20256973005072A1
:1007E000696E742074696D653A20006F666600E872
:1007F00000E300DC00D500C70044454255473A00FD
:100800004B494C4C45442E20004D31313320530090
:100810006F6B00456E6465722D352050524F204F2E
:1008200066662E002C20002C2000544845524D4175
:100830004C5F50524F54454354494F4E004155541C
:100840004F5245504F52545F53445F535441545597
:100850005300454D455247454E43595F5041525311
:10086000455200434153455F4C494748545F42520B
:10087000494748544E45535300544F47474C455FF2
:100880004C494748545300534F4654574152455FD3
:10089000504F574552004255494C445F50455243D2
:1008A000454E54004C4556454C494E475F444154D3
:1008B00041005A5F50524F4245004155544F4C45FC
:1008C00056454C005052494E545F4A4F42005052D8
:1008D0004F4752455353004155544F5245504F5284
:1008E000545F54454D5000564F4C554D4554524958
:1008F0004300454550524F4D0053455249414C5FCE
:10090000584F4E5F584F4646004649524D57415248
:10091000455F4E414D453A4D61726C696E20312EF6
:10092000312E3920284769746875622920534F5544
:100930005243455F434F44455F55524C3A68747487
:1009400070733A2F2F6769746875622E636F6D2F0D
:100950004D61726C696E4669726D776172652F4D7B
:1009600061726C696E2050524F544F434F4C5F562A
:10097000455253494F4E3A312E30204D414348495C
:100980004E455F545950453A456E6465722D352089
:1009900050524F2045585452554445525F434F558D
:1009A0004E543A3120555549443A63656465326185
:1009B00032662D343161322D343734382D3962317D
:1009C000322D6335356336326633363766660A0054
:1009D0002F2F20004D31343520533C696E646578EB
:1009E0003E206F7574206F662072616E67652028E7
:1009F000302D31290A0020540020520041636365E4
:100A00006C65726174696F6E3A2050005741524EA6
:100A1000494E4721204C6F77205A204A65726B203F
:100A20006D6179206C65616420746F20756E7761EB
:100A30006E746564207061757365732E0A002046BC
:100A40006C6F773A200000010F150EFF12FFFFFFB9
:100A500016170EFF13FFFFFF03021A14FFFFFFFF1D
:100A6000FFFFFF0C04FFFFFF01000EFFFFFF0C194B
:100A70000DFF183A200020536572766F2000206F1A
:100A80007574206F662072616E67650A0053657227
:100A9000766F200050726F6265205A204F66667331
:100AA00065743A200043290A0061626C656420285D
:100AB0006D696E2074656D702000436F6C642065F5
:100AC000787472756465732061726520004E6F20C2
:100AD00063617365206C696768740A004D657368AB
:100AE00020706F696E742063616E6E6F7420626532
:100AF000207265736F6C7665640A004D3432312064
:100B0000696E636F727265637420706172616D6586
:100B10007465722075736167650A00454550524FD0
:100B20004D204F4B0A003F5A206F7574206F66208E
:100B300072616E676520282D323020746F2032304C
:100B4000290A003A200050726F6265205A204F66D1
:100B500066736574004163746976652045787472C4
:100B6000756465723A2000496E76616C696420652F
:100B7000787472756465720A00526573656E643AC2
:100B800020006F6B0020746F6F206C6F6E672065A4
:100B90007874727573696F6E2070726576656E74A5
:100BA00065640A0020636F6C6420657874727573E5
:100BB000696F6E2070726576656E7465640A006296
:100BC0007573793A2070617573656420666F722061
:100BD000696E7075740A00627573793A2070617578
:100BE00073656420666F7220757365720A006275A2
:100BF00073793A2070726F63657373696E670A0068
:100C00004B494C4C45442E20004B494C4C206361D1
:100C10007573656420627920746F6F206D756368E9
:100C200020696E6163746976652074696D65202D35
:100C30002063757272656E7420636F6D6D616E6492
:100C40003A20004D36303000506C6561736520727B
:100C500065736574005052494E5445522048414CCA
:100C6000544544005072696E7465722068616C74FA
:100C700065642E206B696C6C28292063616C6C653F
:100C800064210A000000614300006143000000008D
:100C90000000484200004842000080400000000080
:100CA0005761726E696E673A20486F6D696E672092
:100CB00042756D702044697669736F72203C2031F3
:100CC0000A000202040000A0400000A04000000052
:100CD000400000614300006143000096430101FFB2
:100CE0004D3630303A20546F6F20636F6C6400488B
:100CF0006F74656E6420746F6F20636F6C640A009C
:100D00007C3C3E5E2B3D3F2F5B5D3B2C2A225C00F2
:100D10004572726F722077726974696E6720746FA2
:100D200020454550524F4D210A00454550524F4DE8
:100D3000206461746173697A65206572726F722EC6
:100D40000A002053697A653A2000496E6465783A52
:100D50002000F4010000F40100006400000088138A
:100D600000000000FA430000FA430000A040000029
:100D7000C8410000A0420000A0420000484400001A
:100D8000BA423A0A0020286D6D290020204D3630E5
:100D90003320002055004C0046696C616D656E740F
:100DA000206C6F61642F756E6C6F6164206C656E72
:100DB000677468733A0A0020204D383531205A0094
:100DC0005A2D50726F6265204F66667365740020FD
:100DD000440020490020204D33303120500050493C
:100DE000442073657474696E67733A0A0020460084
:100DF00020420020480020204D3134352053004D42
:100E00006174657269616C206865617475702070C9
:100E10006172616D65746572733A0A00205A002030
:100E20004A0020204732392057204900205A00200C
:100E3000204D3432302053004175746F2042656478
:100E4000204C6576656C696E673A0A00205A00206E
:100E5000590020204D323036205800486F6D6520F3
:100E60006F66667365743A0A00204500205A0020B8
:100E7000590020580020540020530020204D3230CB
:100E80003520510020453C6D61785F655F6A657271
:100E90006B3E0020583C6D61785F785F6A65726BCD
:100EA0003E20593C6D61785F795F6A65726B3E20C8
:100EB0005A3C6D61785F7A5F6A65726B3E0041648F
:100EC00076616E6365643A20513C6D696E5F73654F
:100ED000676D656E745F74696D655F75733E2053F1
:100EE0003C6D696E5F66656564726174653E205431
:100EF0003C6D696E5F74726176656C5F6665656492
:100F0000726174653E0020540020520020204D3252
:100F10003034205000416363656C65726174696FA1
:100F20006E2028756E6974732F7332293A20503CF5
:100F30007072696E745F616363656C3E20523C72CF
:100F40006574726163745F616363656C3E20543CD9
:100F500074726176656C5F616363656C3E0A002044
:100F60004500205A0020590020204D3230312058B1
:100F7000004D6178696D756D20416363656C6572C4
:100F80006174696F6E2028756E6974732F733229CE
:100F90003A0A00204500205A0020590020204D32F6
:100FA00030332058004D6178696D756D2066656538
:100FB0006472617465732028756E6974732F732968
:100FC0003A0A00204500205A0020590020204D39BF
:100FD0003220580053746570732070657220756EEE
:100FE00069743A0A0020204D3230302044300A0023
:100FF00020204D3230302044002044697361626CFF
:1010000065640A0046696C616D656E742073657471
:1010100074696E67733A0020204D313439204320C3
:101020003B20556E69747320696E2043656C73694B
:1010300075730A002020473231202020203B0048D1
:101040006F6D696E67206661696C65640054524912
:10105000474745524544006F70656E003A20006670
:10106000696C616D656E74007A5F6D696E00795FA1
:101070006D617800785F6D6178005265706F727491
:10108000696E6720656E6473746F70207374617429
:1010900075730A0020746F6F206C6F6E672065781F
:1010A00074727573696F6E2070726576656E7465A3
:1010B000640A0020636F6C642065787472757369CC
:1010C0006F6E2070726576656E7465640A0024F434
:1010D000D43050C38E20C2A24017828B7011127A76
:1010E000910D816CD90AA861E108C7586607615162
:1010F00043061E4B5D05C145A7041A411104093D75
:101100009803713931034036DB0265339102D430E4
:101110005402802E1D02632CEE01752AC501B028F1
:10112000A001102781018F2564012B244B01E022AF
:101130003401AC211F018D200D01801FFC00841E95
:10114000ED00971DDF00B81CD200E61BC600201B77
:10115000BC00641AB200B219A8000A19A0006A18EB
:101160009900D117910040178B00B51684003116F5
:101170007E00B31579003A157300C7146F00581438
:101180006A00EE1366008813630025135E00C71221
:101190005B006C12570015125400C1115100701100
:1011A0004F0021114B00D61049008D10470046100A
:1011B000440002104200C00F4000800F3E00420F6A
:1011C0003C00060F3B00CB0E3800930E37005C0E40
:1011D0003500270E3400F30D3200C10D3100900DA3
:1011E0003000600D2E00320D2D00050D2C00D90CA5
:1011F0002B00AE0C2900850C29005C0C2700350C57
:1012000027000E0C2600E80B2400C40B2400A00BC2
:1012100023007D0B23005A0B2100390B2100180BF2
:101220002000F80A1F00D90A1E00BB0A1E009D0AF2
:101230001D00800A1D00630A1C00470A1B002C0ABF
:101240001B00110A1A00F7091A00DD091900C40968
:101250001900AB091900920917007B0918006309EE
:1012600017004C09160036091600200916000A0955
:101270001500F5081500E0081400CC081400B808A3
:101280001400A4081400900813007D0812006B08D5
:1012900013005808120046081200340811002308F1
:1012A00011001208110001081100F0071000E007FA
:1012B0001000D0071000C0071000B0070F00A107F2
:1012C000100091070E0083070F0074070F006507D9
:1012D0000E0057070E0049070E003B070D002E07B2
:1012E0000E0020070D0013070D0006070D00F9067C
:1012F0000C00ED060D00E0060C00D4060C00C8063C
:101300000C00BC060C00B0060C00A4060B009906ED
:101310000C008D060B0082060B0077060B006C0696
:101320000B0061060A0057060B004C060A00420635
:101330000A0038060A002E060A0024060A001A06C9
:101340000A001006090007060A00FD050900F40559
:101350000900EB050900E2050900D9050900D005DF
:101360000900C7050900BE050900B5050800AD055F
:101370000800A50509009C050800940508008C05D7
:101380000800840508007C050800740508006C0549
:101390000700650508005D050700560508004E05B5
:1013A000070047050700400508003805070031051C
:1013B00007002A050700230507001C05060016057F
:1013C00007000F0507000805060002050700FB04DB
:1013D0000600F5040700EE040600E8040600E20437
:1013E0000700DB040600D5040600CF040600C9048C
:1013F0000600C3040600BD040600B7040600B104DD
:101400000500AC040600A6040600A00405009B0429
:10141000060095040500900406008A040500850472
:101420000500800406007A040500750405007004B8
:1014300005006B04050066040500610405005C04FA
:10144000050057040500520405004D04050048043A
:101450000500430405003E0404003A040500350479
:101460000500300404002C040500270404002304B4
:1014700005001E0404001A040400160405001104EB
:1014800004000D0404000904050004040400000421
:101490000400FC030400F8030400F4030400F00358
:1014A0000400EC030400E8030400E4030400E00388
:1014B0000400DC030400D8030400D4030400D003B8
:1014C0000400CC030400C8030300C503030024F494
:1014D00004D9201BC40C5C0E9804C4095F02650784
:1014E0007101F405F900FB04B30048048700C1034F
:1014F00069005803550003034500BE023A00840208
:10150000310053022A002902250004022000E401D0
:101510001C00C8011900AF011700980114008401D4
:101520001300710110006101100051010E00430110
:101530000D0036010B002B010B0020010B001501E3
:1015400009000C01090003010800FB000800F3007A
:101550000800EB000700E4000600DE000600D800EB
:101560000600D2000600CC000500C7000500C2003E
:101570000500BD000400B9000400B5000400B1007E
:101580000400AD000400A9000400A5000300A200AF
:1015900003009F0004009B000300980003009500D7
:1015A000020093000300900003008D0002008B00F6
:1015B000030088000200860002008400030081000E
:1015C00002007F0002007D0002007B000200790023
:1015D0000200770001007600020074000200720031
:1015E0000100710002006F0002006D0001006C003C
:1015F00002006A0001006900020067000100660045
:101600000100650001006400020062000100610049
:101610000100600001005F0002005D0001005C004D
:1016200001005B0001005A00010059000100580050
:101630000100570001005600010055000100540050
:10164000010053000000530001005200010051004E
:101650000100500001004F0001004E0000004E004C
:1016600001004D0001004C0001004B0000004B0048
:1016700001004A0001004900010048000000480044
:10168000010047000100460000004600010045003F
:101690000000450001004400010043000000430039
:1016A0000100420000004200010041000000410032
:1016B0000100400001003F0000003F0001003E002B
:1016C00000003E0001003D0000003D0001003C0024
:1016D00000003C0000003C0001003B0000003B001B
:1016E00001003A0000003A00010039000000390012
:1016F0000100380000003800000038000100370009
:1017000000003700010036000000360000003600FF
:1017100001003500000035000000350001003400F4
:1017200000003400000034000100330000003300EA
:1017300000003300010032000000320000003200DF
:1017400001003100000031000000310001003000D4
:10175000000030000000300001002F0000002F00CA
:1017600000002F0000002F0001002E0000002E00BE
:1017700000002E0001002D0000002D0000002D00B3
:1017800000002D0001002C0000002C0000002C00A7
:1017900000002C0001002B0000002B0000002B009B
:1017A00000002B0001002A0000002A0000002A008F
:1017B00000002A0001002900000029000000290083
:1017C0000000290000002900010028000000280076
:1017D0000000280000002800000028000100270069
:1017E000000027000000270000002700000027005D
:1017F0000100260000002600000026000000260050
:101800000000260001002500000025000000250042
:101810000000250000002500000025000100240034
:101820000000240000002400000024000000240028
:10183000010023000000230000002300000023001B
:10184000000023000000230000002300010022000C
:101850000000220000002200000022000000220000
:1018600000002200010021000000210000002100F2
:1018700000002100000021000000210000002100E4
:1018800001002000000020000000200000002000D7
:1018900000002000000020000000200000002000C8
:1018A00001001F0000001F0000001F0000001F00BB
:1018B00000001F0000001F0000001F0001001E00AC
:1018C00000001E0000001E0000001E000000043783
:1018D00000001E290000511B0000581000001009D4
:1018E0000000CC04000078020000410100006265A5
:1018F000640A002C2073797374656D2073746F70A3
:1019000070656421204865617465725F49443A20BE
:10191000004265642068656174696E67206661696C
:101920006C65640048656174696E67206661696C06
:1019300065640045312048656174696E67206661A1
:10194000696C65640048656174696E6720666169E9
:101950006C65640070012C0190012701B001220127
:10196000C0011D01F00118011002130130020E0127
:101970006002090190020401C002FF000003FA00A6
:101980004003F5008003F000D003EB002004E600E4
:101990007004E100E004DC004005D700C005D2007F
:1019A0004006CD00D006C8008007C3003008BE0046
:1019B000F008B900C009B400B00AAF00B00BAA002B
:1019C000D00CA500000EA000500F9B00C010960088
:1019D0005012910000148C00C0158700B0178200CF
:1019E000B0197D00D01B7800001E730040206E00EF
:1019F00090226900F024640040275F0090295A007B
:101A0000E02B5500102E500020304B0010324600C5
:101A1000E033410090353C00103737007038320019
:101A2000A0392D00B03A2800A03B2300603C1E00E6
:101A3000103D1900903D1400103E0F00703E0A004A
:101A4000C03E0500003F0000403FFBFF803FF6FF27
:101A5000C03FF1FF453120544845524D414C205282
:101A6000554E415741590042454420544845524D36
:101A7000414C2052554E4157415900546865726D92
:101A8000616C2052756E6177617900453120457235
:101A9000723A204D415854454D50004572723A20DB
:101AA0004D415854454D5020424544004D415854F5
:101AB000454D5020747269676765726564004531F1
:101AC000204572723A204D494E54454D50004572A2
:101AD000723A204D494E54454D5020424544004DE8
:101AE000494E54454D50207472696767657265644C
:101AF000004D383420582059204500202F00204226
:101B0000403A0020403A0025753A253032750025CC
:101B10003032753A25303275002575642025303213
:101B2000753A2530327500202020202020005A00F0
:101B3000590020202020005800092000000000004B
:101B400000000000000000003FFFF0000000000067
:101B500000000000000000380070000000000000DD
:101B600000000000000030FC300000000000000019
:101B7000000000000020FC10000000000000000039
:101B800000000000207810000000000000000000AD
:101B900000000020301000000000000000000000E5
:101BA00000002C00D03FC000000000000000208298
:101BB000002E31D07FE00000000000000010410046
:101BC0002F7BD07FE0000000000000001041002FBC
:101BD0007BD07FE0000000000000002082002E315A
:101BE000D03FC0000000000000004104002C00D0E5
:101BF0003FC0000000000000008208002030107F7D
:101C0000E0000000000000008208002078107FE063
:101C10000000000000000041040020FC107FE000F4
:101C200000000000000020820030FC301F80000017
:101C300000000000000000003800700F00000000ED
:101C400000000000FFFFC03FFFF0060000000000A2
:101C5000000000FFFFC000000000000000000000C6
:101C600000000000003FFFF0000000000000000046
:101C700000000000380070000000000000000000BC
:101C8000000000318630000000000000000000006D
:101C9000000023871000000000000000000000008A
:101CA00000278790000000000000000000000000F6
:101CB0002F87D00000000000000000000000002F6F
:101CC00003D03FC000000000000000208200203050
:101CD000107FE0000000000000001041002078109C
:101CE0007FE0000000000000001041002078107F1D
:101CF000E0000000000000002082002030103FC003
:101D0000000000000000004104002F03D03FC0008D
:101D10000000000000008208002F87D07FE0000054
:101D200000000000008208002787907FE00000008C
:101D3000000000004104002387107FE00000000045
:101D40000000002082003186301F8000000000006B
:101D500000000000003800700F00000000000000CC
:101D600000FFFFC03FFFF006000000000000000081
:101D7000FFFFC0000000456E6465722D3520505293
:101D80004F2052656164792E005072696E74696EDD
:101D9000672E2E2E005072696E7420706175736507
:101DA0006400436D643A2053746F7700436D643A66
:101DB000204465706C6F7900436D643A2053656C04
:101DC000662D5465737400436D643A2053572D4D4E
:101DD0006F646500436D643A205265736574004D0D
:101DE00061696E004D313235004D323400507269F8
:101DF0006E742061626F72746564004D3231004E02
:101E00006F2053442063617264004368616E6765AC
:101E10002053442063617264004D32310050726976
:101E20006E742066726F6D2053440053746F70207F
:101E30007072696E7400526573756D652070726999
:101E40006E7400496E69742E20534420636172647D
:101E5000005061757365207072696E7400436F6E17
:101E600074726F6C00507265706172650054756EAB
:101E70006500496E666F2073637265656E0050720F
:101E80006F6265205A204F6666736574004368610F
:101E90006E67652066696C616D656E74004368618C
:101EA0006E67652066696C616D656E74004D3630D5
:101EB000302042300050726F6265205A204F6666B3
:101EC00073657400466C6F7700466C6F77004661EF
:101ED0006E2073706565640046616E207370656581
:101EE000640042656400426564004E6F7A7A6C65F6
:101EF000004E6F7A7A6C65005370656564005370AC
:101F0000656564004D61696E005072656865617455
:101F100020504C4120456E640050726568656174C4
:101F200020504C41204265640050726568656174C0
:101F300020504C41005072657061726500507265AE
:101F4000686561742041425320456E64005072659B
:101F50006865617420414253204265640050726597
:101F6000686561742041425300507265706172650A
:101F700000436D643A205265736574004D32383009
:101F8000205030205331363000436D643A20536581
:101F90006C662D54657374004D32383020503020FB
:101FA000533132300050726568656174204142538C
:101FB000005072656865617420504C4100436F6F3A
:101FC0006C646F776E004368616E67652066696C4C
:101FD000616D656E74004368616E67652066696C4B
:101FE000616D656E74004D363030204230004469BA
:101FF0007361626C65207374657070657273004DF7
:102000003834004175746F20686F6D650047323851
:10201000004D6F76652061786973004D61696E00CF
:102020004D6F76652058004D6F76652059004D6FD5
:102030007665205A004578747275646572004D6F3C
:10204000766520302E316D6D004D6F766520316DD7
:102050006D004D6F76652031306D6D004D6F76658A
:102060002061786973004578747275646572004DFB
:102070006F7665205A004D6F76652059004D6F765A
:10208000652058004578747275646572004D6F76EE
:1020900065205A004D6F76652059004D6F7665209A
:1020A000580050726570617265004C6F61642073F6
:1020B000657474696E677300526573746F7265201E
:1020C0006661696C736166650053746F7265207335
:1020D000657474696E677300424C546F7563680071
:1020E00046696C616D656E74004D6F74696F6E004A
:1020F00054656D7065726174757265004D61696ECD
:10210000004D333033205531204525692053256952
:1021100000504944204175746F74756E65005049D4
:1021200044204175746F74756E65005049442D44A8
:10213000005049442D44005049442D490050494421
:102140002D49005049442D50005049442D5000461F
:10215000616E2073706565640046616E2073706502
:1021600065640042656400426564004E6F7A7A6C73
:1021700065004E6F7A7A6C6500436F6E74726F6C97
:102180000050726F6265205A204F66667365740056
:10219000436F6E74726F6C004C6F6164206D6D00E4
:1021A0004C6F6164206D6D00556E6C6F6164206DC5
:1021B0006D00556E6C6F6164206D6D0046696C2E0C
:1021C000204469612E0046696C2E204469612E000E
:1021D0004F6666004F6E20004520696E206D6D339E
:1021E00000436F6E74726F6C0043616E6E6F74208B
:1021F000656E746572207375626469723A200002BC
:102200002E2E000152656672657368004D61696E1D
:10221000004D37303220542564004D363030204296
:102220003020542564004D373032203B2564004D6A
:1022300037303120542564004368616E676520663D
:10224000696C616D656E74005072656865617420BB
:10225000414253005072656865617420504C4100E2
:102260004368616E67652066696C616D656E7400B8
:102270005052494E542050415553454400554E4C00
:102280004F41442046494C414D454E54004C4F412E
:10229000442046494C414D454E5400507572676587
:1022A000206D6F726500436F6E74696E75650052C4
:1022B0004553554D45204F5054494F4E533A0020F9
:1022C000204E6F7A7A6C653A20006368616E6765AC
:1022D000006F66207468652066696C616D656E7458
:1022E000005761697420666F7220737461727400A4
:1022F00020204E6F7A7A6C653A2000200066696C67
:10230000616D656E7420756E6C6F616400576169F4
:102310007420666F720020204E6F7A7A6C653A20C6
:10232000002000506C6561736520776169742E2E02
:102330002E0048656174696E67206E6F7A7A6C65ED
:102340000020204E6F7A7A6C653A20002000686584
:102350006174206E6F7A7A6C652E005072657373AB
:1023600020627574746F6E20746F0020204E6F7A37
:102370007A6C653A2000746F20636F6E74696E75B5
:10238000652E2E2E00616E6420707265737320625C
:102390007574746F6E00496E736572742066696C33
:1023A000616D656E740020204E6F7A7A6C653A20FC
:1023B00000200066696C616D656E74206C6F6164ED
:1023C000005761697420666F720020204E6F7A7A20
:1023D0006C653A2000200066696C616D656E742042
:1023E0007075726765005761697420666F7200745A
:1023F0006F20726573756D65005761697420666F33
:1024000072207072696E74000000210024002700A1
:102410002A0000002200250028002B0000002000D8
:102420002300260029000202020202020202040422
:10243000040404040404030303030303030301016A
:102440000101010101010102040810204080010284
:1024500004081020408001020408102040808040C1
:10246000201008040201000000010200090A000017
:102470000000040308070000000000000000000046
:102480000000000000002020506C616E6E657242FA
:10249000756666657242797465733A2000204672EB
:1024A0006565204D656D6F72793A2000312E312EB1
:1024B000390A004D61726C696E0020536F66747743
:1024C0006172652052657365740A002057617463F8
:1024D00068646F672052657365740A002042726FEA
:1024E000776E206F75742052657365740A002045FD
:1024F000787465726E616C2052657365740A005061
:102500006F77657255700A0073746172740A0061A6
:1025100075746F25692E67006572726F722077720D
:102520006974696E6720746F2066696C650A00457E
:102530006E6473746F707320256320256320256398
:1025400020256300205A3A0020593A0020583A00CA
:10255000656E6473746F7073206869743A20004408
:102560006F6E6520736176696E672066696C652E93
:102570000A004D3239004D3234004D32332025737C
:1025800000556E6B6E6F776E20636F6D6D616E645C
:102590003A202200496E736572742066696C616D21
:1025A000656E7420616E642070726573732062754D
:1025B00074746F6E20286F72204D313038290A00F4
:1025C000486F74656E6420746F6F20636F6C640A6B
:1025D0000050726F62696E67206661696C65640A9B
:1025E0000050726F62696E67206661696C65640095
:1025F000205A3A200020593A200042656420583A77
:10260000200053442063617264206F6B0A006F7076
:10261000656E526F6F74206661696C65640A00763E
:102620006F6C756D652E696E6974206661696C6585
:10263000640A00534420696E6974206661696C0AFB
:1026400000486F6D652025732573257320666972B8
:102650007374002066697273740A005A0059005836
:1026600000486F6D65200057726974696E67207449
:102670006F2066696C653A20006F70656E20666138
:10268000696C65642C2046696C653A20006F706542
:102690006E206661696C65642C2046696C653A2021
:1026A0000046696C652073656C65637465640A0037
:1026B0002053697A653A200046696C65206F706521
:1026C0006E65643A20002066696C653A2000646F8C
:1026D000696E67006672657368004E6F772000450B
:1026E0004E4420535542524F5554494E450A0022FC
:1026F00020706F73002220706172656E743A220040
:10270000535542524F5554494E452043414C4C205D
:102710007461726765743A22004B494C4C45442EF3
:102720002000747279696E6720746F2063616C6C2D
:10273000207375622D67636F64652066696C6573CD
:10274000207769746820746F6F206D616E79206CDA
:102750006576656C732E204D4158206C6576656CEE
:102760002069733A004572726F723A006F70656E3D
:10277000206661696C65642C2046696C653A2000AE
:1027800043616E6E6F74206F70656E207375626446
:10279000697220006563686F3A0000060900FE0751
:1027A00001920321207FFF07FF07FF0000000600C2
:1027B00000010707060200808080808000800302FD
:1027C00002060105A0A00507070600005050F850BA
:1027D000F850500507070600002078A07028F02068
:1027E000050707060000C0C8102040981805070715
:1027F0000600006090A040A8906802030306010450
:10280000C0408003070706010020408080804020F0
:1028100003070706010080402020204080050505B1
:1028200006000120A870A82005050506000120204B
:10283000F820200203030602FFC0408005010106C4
:102840000003F8020202060200C0C00505050600EA
:10285000010810204080050707060000708888885E
:1028600088887003070706010040C040404040E0F0
:10287000050707060000708808708080F8050707C4
:10288000060000F81020100808F0050707060000F1
:1028900010305090F81010050707060000F880F07F
:1028A00008088870050707060000708080F0888897
:1028B00070050707060000F80810202020200507F3
:1028C0000706000070888870888870050707060072
:1028D0000070888878080870020505060200C0C0EC
:1028E00000C0C00206060602FFC0C000C04080044F
:1028F0000707060000102040804020100503030653
:102900000002F800F80407070601008040201020AC
:102910004080050707060000708808102000200589
:10292000070706000070880868A8A8700507070652
:102930000000708888F8888888050707060000F07E
:102940008888F08888F00507070600007088808076
:10295000808870050707060000F08888888888F05E
:10296000050707060000F88080F08080F80507075B
:10297000060000F88080F0808080050707060000D0
:10298000708880B8888870050707060000888888E6
:10299000F888888801070706020080808080808090
:1029A000800507070600003810101010906005071A
:1029B000070600008890A0C0A090880507070600C1
:1029C00000808080808080F805070706000088D896
:1029D000A8888888880507070600008888C8A898FE
:1029E0008888050707060000708888888888700531
:1029F0000707060000F08888F0808080050707063A
:102A0000000070888888A89068050707060000F015
:102A10008888F0A0908805070706000078808070FD
:102A20000808F0050707060000F8202020202020D5
:102A300005070706000088888888888870050707CA
:102A4000060000888888888850200507070600004F
:102A50008888888888A8500507070600008888505D
:102A600020508888050707060000888888502020A5
:102A700020050707060000F80810204080F803072B
:102A800007060100E08080808080E00505050600E3
:102A9000018040201008030707060100E0202020E5
:102AA0002020E005030306000420508805010106EC
:102AB0000000F80202020602058040050505060036
:102AC0000070087888780507070600008080B0C885
:102AD0008888F0050505060000708080887005076D
:102AE000070600000808689888887805050506002C
:102AF000007088F880700507070600003048E04045
:102B00004040400506060600FF708888780870057A
:102B100007070600008080B0C8888888010707067C
:102B20000200800080808080800308080601FF206A
:102B30000020202020A0400407070600008080908D
:102B4000A0C0A090030707060100C04040404040DD
:102B5000E0050505060000D0A8A8A8A805050506FB
:102B60000000B0C8888888050505060000708888C0
:102B700088700506060600FFF08888F0808005064C
:102B8000060600FF78888878080805050506000015
:102B9000B0C880808005050506000070807008F0D0
:102BA0000407070600004040E040404030050505AE
:102BB0000600008888889868050505060000888852
:102BC0008850200505050600008888A8A85005053E
:102BD0000506000088502050880506060600FF887C
:102BE0008888780870050505060000F8102040F870
:102BF00003070706010020404080404020010707EE
:102C00000602008080808080808003070706010024
:102C1000804040204040800502020600026890008B
:102C2000000006000000060900FE00000000000190
:102C3000090008FE000005080806000040F0C888EA
:102C400088987810050808060000C0F888888888E9
:102C500088F80505050600012030F8302005080831
:102C60000600002070F820202020E0050909060059
:102C7000FF2070A8A8B8888870200509090600FF01
:102C8000E080C0B0A8283028280509090600FFF810
:102C9000A88888888888A8F8050A0A0600FE2050B7
:102CA00050505088A8A8887003030306000340A072
:102CB000400090E8BBE611241FBECFEFD0E4DEBF9A
:102CC000CDBF12E0A0E0B1E0EAE8F2EF01E00BBF17
:102CD00002C007900D92A035B107D9F723E1A0E516
:102CE000B2E001C01D92A93BB207E1F716E1CAE5C7
:102CF000D6E104C02197FE010E94A9F8C935D10789
:102D0000C9F70E9490E90C9438F90C940000CF9216
:102D1000DF92EF92FF926091D9037091DA03072E50
:102D2000000C880B990B0E9417F26B017C012DEBB4
:102D300037E346E855EB0E94EBF787FD0BC02DEB20
:102D400037E346E855E3C701B6010E9410F21816B2
:102D50000CF043C0A701960160E070E080E89FE3BB
:102D60000E94EBF660939203709393038093940315
:102D7000909395036091DB037091DC03072E000CA8
:102D8000880B990B0E9417F26B017C012DEB37E346
:102D900046E855EB0E94EBF787FD0AC02DEB37E3C1
:102DA00046E855E3C701B6010E9410F21816CCF4AC
:102DB000A701960160E070E080E89FE30E94EBF6D7
:102DC000609396037093970380939803909399036D
:102DD000FF90EF90DF90CF90089560E070E0CB011E
:102DE000C1CF60E070E0CB01EBCF8091BB0290914E
:102DF000BC02A091BD02B091BE0280935601909397
:102E00005701A0935801B09359018091B902909154
:102E1000BA0290932701809326010895809156016C
:102E200090915701A0915801B09159018093BB0234
:102E30009093BC02A093BD02B093BE028091260184
:102E4000909127019093BA028093B90284E690E0B2
:102E5000909327018093260108950F931F93CF939A
:102E6000DF9394E0899FE00111248E010959134FEB
:102E7000FE01E957F54FDE01AD53BC4F2D913D9159
:102E80004D915C9160817181828193810E9468F68D
:102E9000F8016083718382839383FE01E759FD4FBC
:102EA00085919591A591B491FE01EA5BF64F8083DF
:102EB0009183A283B383FE01EB58FD4F85919591D9
:102EC000A591B491C85DDE4F88839983AA83BB83A3
:102ED000DF91CF911F910F9108959091970AE92F5B
:102EE000F0E0ED56F54F80839F5F943040F490936F
:102EF000970A80911A0C8F5F80931A0C0895109294
:102F0000970AF7CF2FEB280F2A3108F042C0E22FA3
:102F1000F0E08091E3029091E402A091E502B0918B
:102F2000E60204C0B695A795979587952A95D2F79E
:102F300080FD02C081700895E753FD4FE081EE23CC
:102F400029F18091300C9091310CE80FF92FF11D8F
:102F5000808190ED980F9A3030F08E3251F481815B
:102F600080538A3098F4F0935102E093500281E04C
:102F700008958D3211F08B3249F4818190ED980FD4
:102F80009A3088F38E3211F48281EACFF0E0E0E0EB
:102F9000EACF80E008950E948217882341F081E003
:102FA0002091500230915102232B09F480E00895C2
:102FB000089590E080E0089580E1E7E7FCE0AEE36B
:102FC000BCE001900D928A95E1F7089580E1EEE36F
:102FD000FCE0A7E7BCE001900D928A95E1F7089527
:102FE00080916C0390916D032FEF3FEF981751F094
:102FF000E92FF0E0E451FD4F208130E09F5F9F77A3
:1030000090936D03C90108950F931F93CF93DF939E
:10301000EC010E94AFC30E811F81288539850115FF
:1030200011052105310579F52C85222339F1EA8531
:1030300021502C8721E02E0F2A873D85231301C0C4
:103040001A86F0E03196EE0FFF1FEE0FFF1FEC0F18
:10305000FD1F02851385248535850A831B832C83F8
:103060003D83600F711F811D911D6E837F83888753
:1030700099878C819D81892B09F0149ADF91CF91DA
:103080001F910F910895601B710B820B930B97FD9D
:10309000F5CF14981E821F8218861986EFCFCF9223
:1030A000DF92EF920F931F93CF93DF93CDB7DEB7ED
:1030B00060970FB6F894DEBF0FBECDBFE0905F0CF7
:1030C000E7E7FCE080859185A285B3854481558141
:1030D00066817781008111812281338109831A837E
:1030E0002B833C834D835E836F83788789879A87A0
:1030F000AB87BC871D861E861F86188AAE01475F78
:103100005F4FBE016B5F7F4FCE0101960E9416A0FC
:10311000CE010D966C0106E511E023E83CE0AE011E
:10312000475F5F4FBE016B5F7F4F0C970E944C91D2
:1031300060960FB6F894DEBF0FBECDBFDF91CF9182
:103140001F910F91EF90DF90CF900895CF93DF9371
:1031500080E00E94749FCAE9D3E0688379838A8300
:103160009B8381E00E94749F6C837D838E839F8309
:1031700082E00E94749F688779878A879B87DF91A6
:10318000CF9108958091500290915102009731F0B3
:103190004AE050E070E060E00C9423EF60E070E003
:1031A000CB0108950E94C21897FD0CC00E94C2185E
:1031B0006F3F71058105910509F034F40E94C21832
:1031C000862F089580E008958FEF08958091500232
:1031D00090915102892B41F00E94D21891E0811107
:1031E00001C090E0892F089591E0FCCF80915002BA
:1031F00090915102009731F04AE050E070E060E0B9
:103200000C9451F060E070E0CB0108950F931F9390
:10321000CF9380915002909151020097E9F0FC0108
:103220008F01C1912C2F2F7D81F0C53411F0C5364F
:10323000B9F7F801108270E060E00E94C5EDF80176
:10324000C083CF911F910F91089570E060E0CF91FE
:103250001F910F910C94C5ED60E070E0CB01F1CFB0
:103260008F929F92AF92BF92CF92DF92EF92FF9296
:103270000F93CF93DF931F92CDB7DEB76C017B0125
:1032800049018091D3035B01A40EB51E8823A1F0F0
:10329000F60180819181480F591F518340830F901F
:1032A000DF91CF910F91FF90EF90DF90CF90BF9083
:1032B000AF909F908F900895F601808191810E9438
:1032C000DEF589839091D403992311F0002311F046
:1032D000F7018083BE016F5F7F4FC4010E947BBFF7
:1032E000F60180819181019691838083FFEFEF1A2F
:1032F000FF0AEA14FB0401F7D2CFFC0120E03EE212
:10330000DB014D91BD01403249F0283011F430838A
:103310003196DB0111974C91408331962F5F2B3012
:1033200079F71082089561E0FC0180810C9443C21A
:103330008EBD0DB407FEFDCF08958FEF8EBD0DB489
:1033400007FEFDCF8EB508958F929F92AF92BF92E8
:10335000EF92FF920F931F93CF937C01C62F4901E9
:103360005A01FC019281892F806A86958CBD90FD5F
:1033700003C081E0963009F480E08DBD60E0F70184
:1033800080810E9443C28CE291E00E949BC58C2FF9
:1033900080640E94981908E110E0D501C401002E54
:1033A00004C0B695A795979587950A94D2F70E9481
:1033B000981908501109083FFFEF1F0771F785E9B9
:1033C000CC2321F087E8C83009F08FEF0E949819CC
:1033D000CC3011F40E949D19C0E00E949D19F701A4
:1033E000838387FF04C0CF3F11F0CF5FF6CFCF912B
:1033F0001F910F91FF90EF90BF90AF909F908F9093
:1034000008950F931F93CF93DF93EC0189018C8173
:10341000833039F089E0440F551F661F771F8A9566
:10342000D1F79A01AB0168E1CE010E94A41988236B
:1034300019F086E089833AC08EEF8EBDF801C8018D
:103440009E5F0DB407FEFDCF20812EBD0DB407FE9B
:10345000FDCF21812EBD3296E817F90791F70DB403
:1034600007FEFDCF8FEF0E9498198FEF0E949819E9
:103470000E949D198B838F71853099F488E592E0C5
:103480000E949BC5182F87E11123A1F220E030E0B4
:10349000A9016DE0CE010E94A419882361F086E1A4
:1034A000C9CF83E18983CE010E949319CE010E9486
:1034B000931910E007C00E949D198111F0CFCE0131
:1034C0000E949319812FDF91CF911F910F91089541
:1034D000CF9380919C0EC1E08823A1F04091940E7F
:1034E0005091950E6091960E7091970E24E93CE0F4
:1034F00080919D0E90919E0E0E94011AC82F8111FD
:1035000004C0C0E08C2FCF9108954091980E509147
:10351000990E60919A0E70919B0E411551056105AF
:10352000710591F024E93CE080919D0E90919E0EF2
:103530000E94011A882329F31092980E1092990E76
:1035400010929A0E10929B0E10929C0EDBCFEF926F
:10355000FF920F931F93CF93DF93EC0179018C813E
:10356000833039F089E0440F551F661F771F8A9515
:10357000D1F79A01AB0161E1CE010E94A419882321
:1035800039F084E08983CE010E94931980E03BC02A
:103590000E94AFC38B010E949D198B838F3F81F4E2
:1035A0000E94AFC3601B710B6D327140A0F381E1CB
:1035B0008983CE010E9493198FEF0E949819E6CF5C
:1035C0008E3F11F08FE0F4CF8FEF8EBDF701D70162
:1035D000A150BE4F0DB407FEFDCF9EB591938EBD99
:1035E000AE17BF07B9F70DB407FEFDCF8EB58C93AC
:1035F0000E949D190E949D19CE010E9493198FEF80
:103600000E94981981E0DF91CF911F910F91FF9057
:10361000EF900895CF92DF92EF92FF92CF936B01DC
:103620007C01C42F8091940E9091950EA091960EDE
:10363000B091970E8C159D05AE05BF0501F10E9456
:10364000681A811108C0C0E08C2FCF91FF90EF90D5
:10365000DF90CF90089524E93CE0B701A601809166
:103660009D0E90919E0E0E94A71A882361F3C0922E
:10367000940ED092950EE092960EF092970ECC2377
:1036800021F081E080939C0EDFCFC1E0DDCF4F922F
:103690005F926F927F928F929F92AF92BF92CF92E2
:1036A000DF92EF92FF920F931F93CF93DF93EC0182
:1036B000423051056105710590F480E0DF91CF91B2
:1036C0001F910F91FF90EF90DF90CF90BF90AF9040
:1036D0009F908F907F906F905F904F900895898515
:1036E0009A85AB85BC850196A11DB11D84179507F0
:1036F000A607B70710F38F898031C9F5852E962E5E
:10370000A72EBB248B899C89AD89BE89880E991E02
:10371000AA1EBB1E280139016A017B0141E0C501D7
:10372000B4010E940A1B882341F29F89903181F5E0
:10373000DD24EE24FF24F601EE0FFF1FEC56F34FBD
:10374000118300839A89923008F4B8CF4D815E814D
:103750006F817885840E951EA61EB71E8092980EE6
:103760009092990EA0929A0EB0929B0EA7CF8032A3
:1037700009F0A3CF8B899C89AD89BE894A015B0181
:10378000E7E0B694A79497948794EA95D1F7BECFD3
:10379000E894C7F8DD24EE24FF24F601EE0FFF1FA6
:1037A000EE0FFF1FEC56F34F40825182628273820C
:1037B000C9CFCF92DF92EF92FF920F931F93CF93D7
:1037C000DF93FC0181859285A385B4850196A11DB7
:1037D000B11D84179507A607B70750F480E0DF9165
:1037E000CF911F910F91FF90EF90DF90CF900895B0
:1037F00087898031A9F5BB27A72F962F852FC388EE
:10380000D488E588F6888C0D9D1DAE1DBF1DE9018D
:103810006A017B018F014091940E5091950E609149
:10382000960E7091970E84179507A607B70749F56E
:10383000F8018789803169F5B701A6015527662708
:103840007727440F551F4C56534FFA0180819181C1
:10385000B0E0A0E088839983AA83BB8381E0BFCFD7
:10386000803209F0BBCFC388D488E588F688DB01B5
:10387000CA01C7E0B695A79597958795CA95D1F7E0
:10388000C2CF40E0BC01CD010E940A1B8111D0CF04
:10389000A5CFB701A6014F77552766277727440F95
:1038A000551F440F551F4C56534FFA01808191818B
:1038B000A281B381BF70CECF4F925F926F927F9201
:1038C000AF92BF92CF92DF92EF92FF920F931F932E
:1038D000CF93DF9300D000D0CDB7DEB78C01498302
:1038E0005A836B837C835901C12CD12C7601412CE6
:1038F00082E0582E612C712C49815A816B817C8128
:103900009E012F5F3F4FC8010E94D91B882319F1E8
:10391000F8018585A301920104C0220F331F441FC3
:10392000551F8A95D2F7DA01C901C80ED91EEA1EC1
:10393000FB1E49815A816B817C8187898031F1F43A
:1039400081E0483F5F4F61057105B0F2F501C0822B
:10395000D182E282F3820F900F900F900F90DF914F
:10396000CF911F910F91FF90EF90DF90CF90BF907C
:10397000AF907F906F905F904F90089581E0483FA7
:103980005F4F6F4F7F4008F4B7CFE0CF0F931F9387
:10399000CF93DF93FC012381222331F080E0DF917C
:1039A000CF911F910F9108958B01EC01FB01878945
:1039B000803139F582E08B831D8A1E8A1F8A188E1A
:1039C000808D918DB0E0A0E025E0880F991FAA1F9F
:1039D000BB1F2A95D1F7898B9A8BAB8BBC8B1A8F27
:1039E000098F81E08983188619861A861B861C82B6
:1039F0001D821E821F82188A1C861D861E861F86B7
:103A0000CECF803259F683E08B83428D538D648D07
:103A1000758D4D8B5E8B6F8B788F9E012F5E3F4F28
:103A2000C8010E945C1C8111DACFB8CF8F929F929F
:103A3000AF92BF92CF92DF92EF92FF920F931F93BC
:103A4000CF93DF93EC018B8181110EC080E0DF9179
:103A5000CF911F910F91FF90EF90DF90CF90BF908B
:103A6000AF909F908F90089509891A892B893C897E
:103A7000041715072607370748F34A015B01823010
:103A800031F488869986AA86BB8681E0E0CF8114CE
:103A90009104A104B10449F4188619861A861B867C
:103AA0001C821D821E821F82F0CF088519852A85FF
:103AB0003B85E98DFA8D858590E00996B901A801CD
:103AC0004150510961097109082E04C07695679526
:103AD000579547950A94D2F775016401E1E0CE1A33
:103AE000D108E108F10804C0F694E794D794C7948C
:103AF0008A95D2F7C416D506E606F70620F0012B04
:103B0000022B032B11F58D899E89AF89B88D8C838B
:103B10009D83AE83BF838E010C5F1F4FC114D10400
:103B2000E104F10409F4ADCF4C815D816E817F81A8
:103B30009801898D9A8D0E94D91B91E0C91AD108EC
:103B4000E108F1088111EACF81CFC41AD50AE60A4B
:103B5000F70AE1CF40E050E0BA010C94161D3F9205
:103B60004F925F926F927F928F929F92AF92BF928D
:103B7000CF92DF92EF92FF920F931F93CF93DF9339
:103B8000CDB7DEB72C970FB6F894DEBF0FBECDBF12
:103B90005C01DC0159968D909C90F40181859285A1
:103BA000A385B4859C01AD012F5F3F4F4F4F5F4F01
:103BB00029873A874B875C87D50114964D905D9095
:103BC0006D907C901797411451046104710409F4BD
:103BD00059C0BFEF4B1A5B0A6B0A7B0A312C730189
:103BE00062011D821E821F821886F40181859285E2
:103BF000A385B4852D813E814F81588528173907CB
:103C00004A075B0708F056C089859A85AB85BC8555
:103C10008C159D05AE05BF0550F482E0C82ED12C51
:103C2000E12CF12C92E0492E512C612C712C9E013B
:103C30002F5F3F4FB701A601C4010E94D91B882303
:103C4000C9F189819A81AB81BC81892B8A2B8B2B0D
:103C500001F1260137019FEF491A590A690A790AC9
:103C60002D813E814F8158852F5F3F4F4F4F5F4FD2
:103C70002D833E834F8358873FEFC31AD30AE30A4D
:103C8000F30AB3CF40805180628073803324339431
:103C9000A6CFC414D504E604F70411F70FEF1FEF05
:103CA0002FEF3FE0B701A601C4010E94471B782E09
:103CB00081111AC0712C872D2C960FB6F894DEBF97
:103CC0000FBECDBFDF91CF911F910F91FF90EF906D
:103CD000DF90CF90BF90AF909F908F907F906F902C
:103CE0005F904F903F900895F50144815581668122
:103CF0007781411551056105710539F097018601FC
:103D0000C4010E94471B8823A9F2D5011496CD92C5
:103D1000DD92ED92FC921797332051F0D701C60146
:103D20000196A11DB11DF40180839183A283B38309
:103D3000F50185899689A789B08D892B8A2B8B2BD4
:103D400009F0B9CFC58AD68AE78AF08E818180686A
:103D50008183B1CFCF93DF93EC01462F41706C8507
:103D60007D858E859F850E940A1B882351F0888956
:103D700020E2829FC00111248C56934FDF91CF9196
:103D8000089590E080E0FACFCF93DF93EC018B8130
:103D9000882349F1898187FF22C061E0CE010E941A
:103DA000AA1EFC01892BF9F08081853EE1F08B8110
:103DB000823040F489899A89AB89BC89848F958F38
:103DC000A68FB78F8D899E89938F828F8D899E89CB
:103DD000AF89B88DB58BA48B89818F778983DF916B
:103DE000CF910C94681A81E0888380E0DF91CF91B5
:103DF00008952F923F924F925F926F927F928F928F
:103E00009F92AF92BF92CF92DF92EF92FF920F9369
:103E10001F93CF93DF9300D000D0CDB7DEB78C01D6
:103E20004B011A01DC0113968C911397813009F034
:103E3000CAC011968C9181FFC6C082FDB0C06101DD
:103E4000D80118964D915D916D917C911B97C1148D
:103E5000D10409F41AC159968D919C915A97FC018D
:103E600074802FEF270D2A013B0139E07694679487
:103E7000579447943A95D1F7722E74207A01F1E065
:103E8000FF22711020C0E114F104E9F414964D9161
:103E90005D916D917C9117974115510561057105F3
:103EA00009F097C055968D919D910D90BC91A02DD4
:103EB0000097A105B10509F0A5C0C8010E94AF1D7A
:103EC000882309F480C080E092E08E199F09560192
:103ED0008C159D0508F45C01D80159964D915C91B3
:103EE0005A9714968D919D910D90BC91A02D02979B
:103EF000A109B109FA01258504C0880F991FAA1FDD
:103F0000BB1F2A95D2F74685578560897189840F32
:103F1000951FA61FB71F9C01AD01270D311D411D27
:103F2000511D29013A01A11432E0B30609F078C00D
:103F30008091940E9091950EA091960EB091970E4F
:103F4000481659066A067B0669F410929C0E8FEF9C
:103F50009FEFDC018093940E9093950EA093960EA4
:103F6000B093970E9401B301A20180919D0E9091A0
:103F70009E0E0E94011A882331F1F80180859185F7
:103F8000A285B3858A0D9B1DA11DB11D80879187D8
:103F9000A287B3878A0C9B1CCA18DB0851CFF80193
:103FA000418952896389748980859185A285B38509
:103FB000481759076A077B0709F441CFC8010E94D7
:103FC000161D81113CCF81E0D8018C938FEF9FEFBC
:103FD00072C09E012F5F3F4F0E94D91B882399F327
:103FE00089819A81AB81BC81F801218D328DF901E3
:103FF0002789203169F4883FFFEF9F07A105B105AC
:1040000008F05BCFF80184839583A683B7835BCFE9
:10401000883F2FEF9207A2072FE0B20798F34DCF0A
:10402000E114F10451F5D80118964D915D916D910F
:104030007C911B9751968D919D910D90BC91A02DD7
:10404000481759076A077B07C0F00E94681A88233F
:1040500009F4B9CF81E080939C0E4092940E509267
:10406000950E6092960E7092970EA501B401C7014D
:104070008C56934F0E94C7F880CF41E0C301B20134
:104080000E940A1B8111F1CF9ECFF801818992898C
:10409000A389B48984179507A607B70738F48181E7
:1040A000418B528B638B748B80688183F801818193
:1040B00083FD18C0C1010F900F900F900F90DF91FA
:1040C000CF911F910F91FF90EF90DF90CF90BF9015
:1040D000AF909F908F907F906F905F904F903F90A8
:1040E0002F900895C8010E94C41E8111E3CF6BCFA9
:1040F000CF93DF931F92CDB7DEB7698341E050E0E5
:10410000BE016F5F7F4F04960E94F91E0F90DF91F2
:10411000CF910895CF93DF93EC010E94C41E1B82C0
:10412000DF91CF910895FC01238121110C948A2005
:104130000895CF93DF93EB01FC012381211104C08B
:1041400080E0DF91CF9108952250223028F48FE251
:104150008883198281E0F5CF60E00E94AA1E009753
:1041600079F3DC0160E080E09EE22D91203299F04D
:10417000883031F49E01260F311DF90190836F5F65
:104180009E01260F311DAD0141505109FA014081B8
:10419000F90140836F5F8F5F8B3039F7FE01E60FC7
:1041A000F11D1082D7CF0F931F93CF93DF938B0115
:1041B000EA01DB016D917C9104960E949920D8015F
:1041C000ED91FC91119788819081992349F08D3868
:1041D000A0F43196ED93FC9388818F5F8883EFCFB5
:1041E0008D3858F48FE28083F801808191810196A7
:1041F0009183808388818F5F8883DF91CF911F9126
:104200000F9108952F923F924F925F926F927F92FB
:104210008F929F92AF92BF92CF92DF92EF92FF92D6
:104220000F931F93CF93DF9300D000D0CDB7DEB7AD
:104230009C838B834B017A01DC0113968C91811155
:1042400019C08FEF9FEF0F900F900F900F90DF919D
:10425000CF911F910F91FF90EF90DF90CF90BF9083
:10426000AF909F908F907F906F905F904F903F9016
:104270002F900895EB81FC81818180FFE2CF01893D
:104280001289238934894085518562857385C701E8
:10429000B0E0A0E028013901441A550A660A770AFD
:1042A000481659066A067B0618F47801E41AF50ADE
:1042B00067018B819C8104969A838983612C32E00B
:1042C000732EC114D10409F4B7C0AB81BC81189618
:1042D0004D915D916D917C911B975A01B1E0BB228C
:1042E000EB81FC81818D928D1A012B0129E056947E
:1042F0004794379427942A95D1F72381223091F55A
:10430000DC015A966D917D918D919C915D97620D26
:10431000731D841D951D83010A191B09C016D10642
:1043200008F486010115B2E01B0771F42091940E88
:104330003091950E4091960E5091970E621773072B
:104340008407950709F059C040E00E940A1B8823A2
:1043500009F477CFB5016C56734FA801C4010E94D0
:10436000C7F857C0FC01148111501221A114B104E7
:1043700081F411110EC0452B462B472B79F5EB81AB
:10438000FC8185899689A789B08D84839583A683CE
:10439000B783AB81BC815996ED91FC915A971496E5
:1043A0006D917D918D919C91179762507109810952
:1043B0009109258504C0660F771F881F991F2A95CC
:1043C000D2F72685378540895189620F731F841F74
:1043D000951F610F711D811D911D9DCFAB81BC810A
:1043E00014964D915D916D917C91179729813A8139
:1043F0000E94D91B8111CDCF24CF9401AB01BC0108
:1044000080919D0E90919E0E0E94A71A882309F418
:1044100018CF800E911EEB81FC8180859185A2854D
:10442000B385800F911FA11DB11D80879187A28741
:10443000B387C01AD10A45CFC70105CFDF92EF92EB
:10444000FF920F931F93CF93DF938C01EB017A01BF
:104450008DE0D82E40E250E0BE01C8010E9402214A
:104460008032910571F021E0892B09F420E0822F40
:104470008195DF91CF911F910F91FF90EF90DF9089
:10448000089528812223F1F1253E11F02E3231F4D6
:10449000E114F104F9F2F7011082DCCFE114F10428
:1044A00039F13B853F733F3019F54A8D5B8D452BC4
:1044B000F9F42F713FEF320F3530D0F42150330B28
:1044C000D29EC001D39E900D1124D701A80FB91F11
:1044D000FE0120E0AD01253078F431813D932F5F5E
:1044E00032962D30C1F7288126FF02C0FA011586C9
:1044F0002B8523FDAFCFBDCF2B3010F43481EECF11
:104500003681ECCF80E0B5CF4F925F926F927F9271
:10451000AF92BF92CF92DF92EF92FF920F931F93D1
:10452000CF93DF931F92CDB7DEB78C017B015A0189
:10453000C22EDB0159968D919C91F801928F818F4B
:10454000CB010E94AA1D712CF70180859185A2855F
:10455000B385418952896389748984179507A607B1
:10456000B70708F052C055E0B695A795979587957F
:104570005A95D1F7F82FFF70DF2ED70113968C9143
:10458000823010F480E0DBC041E050E0BE016F5F9C
:104590007F4FC7010E9402210197A1F7F701808593
:1045A0009185A285B3854F96A11DB11D8087918706
:1045B000A287B387F0E2DF9EB00111246C56734FDF
:1045C00061157105F9F2DB018C91882341F0853E7C
:1045D00009F04CC0772029F077247394B5CF71107F
:1045E0000EC08091940E9091950EA091960EB09170
:1045F000970EF80184879587A687B787D08ADB0155
:104600008C918111E9CF772473948C2D827482343C
:1046100009F0B8CF772009F4A2C0F801D08861E092
:10462000C8010E94AA1E009709F4ACCF20E2DC0169
:104630001D922A95E9F72BE0F501DC0101900D921E
:104640002A95E1F721E238E2FC01318B208B40E032
:1046500058E057874687338B228B318F208F578BBB
:10466000468B0E94681A811109C08CCF4BE050E044
:10467000C5010E94BAF8892B09F066CFF0E2DF9EEF
:10468000D00111249D012C56334FF901838581718E
:1046900021F08C2D827109F0FCC0F801818D928D82
:1046A0004091940E5091950E6091960E7091970ED8
:1046B0004487558766877787D08AFD01EC56F34F8C
:1046C00044885588712C612C320155244424D8012A
:1046D00055964D925D926D927C925897428D538D76
:1046E00070E060E0442955296629772955964D9355
:1046F0005D936D937C935897D9011B962C912871EB
:1047000009F0B9C0848D958DA68DB78DF801818B88
:10471000928BA38BB48B81E083838C2D8F70F801F7
:104720008183148215821682178210861186128662
:10473000138681E0C4FE03C0C8010E9429BD0F900A
:10474000DF91CF911F910F91FF90EF90DF90CF906D
:10475000BF90AF907F906F905F904F900895D7017A
:1047600013968C911397823009F40CCF51968D914A
:104770009D910D90BC91A02D803E9F4FAF41B10502
:1047800008F000CFC7010E94AF1D882309F4FACEBC
:104790000E94681A882309F4F5CED7015996ED9145
:1047A000FC915A9714964D905D906D907C90179760
:1047B000B2E04B1A510861087108858504C0440CA9
:1047C000551C661C771C8A95D2F786859785A0892B
:1047D000B189480E591E6A1E7B1E81E080939C0E93
:1047E0004092940E5092950E6092960E7092970E93
:1047F000E4E9FCE080E092E0DF019C011D922150A1
:104800003040E1F7DD24D394D7015996ED91FC9126
:104810008481D81698F424E93CE0B301A2014D0D3F
:10482000511D611D711D80919D0E90919E0E0E94E3
:10483000011A882309F4A6CED394E6CF258580E01B
:1048400092E0A0E0B0E004C0880F991FAA1FBB1F30
:104850002A95D2F7F7014189528963897489840FB7
:10486000951FA61FB71F818B928BA38BB48B84E9F6
:104870009CE0D12CDBCE203161F498012F5E3F4FBC
:104880000E945C1C882329F084E0D80113968C9345
:1048900044CFD80113961C9275CE2F923F924F921F
:1048A0005F926F927F928F929F92AF92BF92CF92C0
:1048B000DF92EF92FF920F931F93CF93DF93CDB7C9
:1048C000DEB7C354D1090FB6F894DEBF0FBECDBF1B
:1048D0004C015B016A01222E19821C821C8E1F8EE4
:1048E0006115710521F510E0CE014C960E949320D0
:1048F000CE0101960E949320812FCD5BDF4F0FB632
:10490000F894DEBF0FBECDBFDF91CF911F910F9105
:10491000FF90EF90DF90CF90BF90AF909F908F90DF
:104920007F906F905F904F903F902F900895FC0183
:1049300083818111D8CFFA0180818F32A9F18B0157
:10494000CE0101967C013C0180E2382E2E019CE1D3
:10495000490E511C2396EFAE23972496FFAE249761
:1049600022963FAE229721963FAE21973FAE3EAEB4
:104970003DAE3CAE3BAE3AAE39AE38AE3FAA960144
:1049800090E047E0D9018D91882309F448C08F3227
:1049900009F445C0282F8E3209F54A3009F4A3CF17
:1049A00098E04AE09D01EECFFB01838182508B01AC
:1049B000823060F0618D728DCE014C960E94C61CD3
:1049C0008E01045E1F4F882309F48DCFC6016C0150
:1049D0000196F60120812F32D1F3B2CFE0E0FDE065
:1049E0003491332321F031968313FACF7CCF4917CA
:1049F00008F479CF813208F476CF8F3709F473CF7A
:104A00003FE9380F3A3110F420EE280FE7E3F0E0E9
:104A1000EC0FFD1FE90FF11D20839F5FC3CF8FA90E
:104A2000803209F460CF6901F90180812F5F3F4F27
:104A30008F32C9F3882301F121E0AE01495C5F4F59
:104A4000B801C7010E948422882309F44CCF0A15BB
:104A50001B0519F0C8010E948A20942D852D6E1423
:104A60007F0431F023969FAD239724968FAD249732
:104A70008701E92EF82E74CF222DAE01495C5F4FDD
:104A8000B801C4010E948422182F2ECF4F925F924A
:104A90006F927F928F929F92AF92BF92CF92DF924E
:104AA000EF92FF92CF934B015C0169017A0120E004
:104AB00030E040E352E40E9468F62B013C012FE60F
:104AC00032E143E85AEB0E94EBF787FD50C022E445
:104AD00030E041E653E4C301B2010E9410F218161F
:104AE0000CF445C020E030E040E851E4C701B601D5
:104AF0000E9468F62B013C012FE632E143E85AEBB5
:104B00000E94EBF787FD33C022E430E041E653E436
:104B1000C301B2010E9410F218164CF127EE3BEFD0
:104B20004FE151E4C501B4010E94EBF787FD1FC0BE
:104B300022E430E045E353E4C501B4010E9410F2E1
:104B40001816ACF027EE3BEF4FE151E4C701B60178
:104B50000E94EBF787FD0BC0C1E022E430E041E5A5
:104B600053E4C701B6010E9410F218160CF4C0E01D
:104B70008C2FCF91FF90EF90DF90CF90BF90AF90B0
:104B80009F908F907F906F905F904F90089529E154
:104B900032E0FC013183208304960C9493205E9ACA
:104BA0008091660C8E7F8093660C5E9A8091660C75
:104BB0008D7F8093660C159A8091660C8B7F809315
:104BC000660C5E9A08954F925F926F927F928F92D9
:104BD0009F92AF92BF92CF92DF92EF92FF920F938C
:104BE0001F93CF93DF93EC016091CF037091D003BB
:104BF000072E000C880B990B0E9417F29B01AC0149
:104C0000688179818A819B810E9467F66B017C01B2
:104C10006091D1037091D203072E000C880B990B81
:104C20000E9417F29B01AC016C817D818E819F8176
:104C30000E9467F64B015C01A701960160910A0191
:104C400070910B0180910C0190910D010E9410F266
:104C5000882309F459C0C0920A01D0920B01E09256
:104C60000C01F0920D012091920330919303409139
:104C7000940350919503C701B6010E9476F22B016F
:104C80003C010E9493F76B017C0120E030E0A90118
:104C90000E9410F287FD79C020E030E040E050E44F
:104CA000C701B6010E94EBF718162CF4C12CD12CC9
:104CB000E12CC0E4FC2EA7019601C301B2010E94C1
:104CC00067F62B013C0120E030E0A9010E9410F2C0
:104CD00087FD5FC040928E0350928F0360929003D5
:104CE00070929103C701B6010E945DF760938D0336
:104CF000062E000C770B6F5F7F4F6230710514F04A
:104D000062E070E060938C0310910501D0918D03F7
:104D1000A50194016091060170910701809108013D
:104D2000909109010E9410F281113CC01D1393C0A3
:104D300020916E0330916F03409170035091710385
:104D400060918E0370918F038091900390919103F5
:104D50000E9476F2209172033091730340917403A4
:104D6000509175030E9468F6DF91CF911F910F91CA
:104D7000FF90EF90DF90CF90BF90AF909F908F907B
:104D80007F906F905F904F900895C12CD12C760149
:104D900092CF10928E0310928F0310929003109274
:104DA0009103A0CF8092060190920701A092080182
:104DB000B092090120919603309197034091980396
:104DC00050919903C501B4010E9476F24B015C0138
:104DD0000E9493F76B017C0120E030E0A9010E9462
:104DE00010F287FD01C120E030E040E050E4C7014F
:104DF000B6010E94EBF718162CF4C12CD12CE12C33
:104E0000B0E4FB2EA7019601C501B4010E9467F62C
:104E10004B015C0120E030E0A9010E9410F287FD07
:104E2000E7C08092880390928903A0928A03B0928F
:104E30008B03C701B6010E945DF760938703062EBE
:104E4000000C770B6F5F7F4F6230710514F062E0EA
:104E500070E060938603C09187031D1305C08091A5
:104E600004018C1709F475C0D0930501C0930401A7
:104E70008D2FDD0F990B0C2E000CDD0BAC01440FB8
:104E8000551F840F951FFC01EC0FFD1FEE0FFF1F38
:104E9000EE0FFF1FE352FC4F20813181428153818D
:104EA00020938203309383034093840350938503BC
:104EB000E09186030E2FEE0F110BDC01A00FB11F46
:104EC000AA0FBB1FAA0FBB1FA352BC4F6D917D91B0
:104ED0008D919C910E9467F660937E0370937F038F
:104EE000809380039093810380918C03282F880FF7
:104EF000330BC901880F991F820F931FC80FD91F49
:104F0000CC0FDD1FCC0FDD1FC352DC4F2881398150
:104F10004A815B8120937A0330937B0340937C0327
:104F200050937D03FC01E00FF11FEE0FFF1FEE0F0A
:104F3000FF1FE352FC4F60817181828193810E9447
:104F400067F660937603709377038093780390936A
:104F500079038090880390908903A0908A03B09091
:104F60008B0320917E0330917F0340918003509109
:104F70008103C501B4010E9476F220918203309131
:104F8000830340918403509185030E9468F66B016E
:104F90007C01C0927203D0927303E0927403F0928A
:104FA00075032091760330917703409178035091F7
:104FB0007903C501B4010E9476F220917A03309101
:104FC0007B0340917C0350917D030E9468F6A7010A
:104FD00096010E9467F660936E0370936F0380934F
:104FE000700390937103A4CEC12CD12C76010ACF0B
:104FF000109288031092890310928A0310928B03F7
:1050000018CF8F929F92AF92BF92FF920F931F93F0
:10501000CF93DF9300D000D0CDB7DEB7F82E662354
:1050200051F01092C3021092BF021092C00210926F
:10503000C1021092C2020E94AFC34B015C01809179
:10504000BF029091C002A091C102B091C202A5011D
:105050009401281B390B4A0B5B0BDA01C901B7FD20
:1050600045C02091C302F7FC13C04F2D0F2C000C3C
:10507000550B4C5F5F4F822F022E000C990B481787
:105080005907A4F184EF91E0A0E0B0E02F1524F4DB
:1050900088EE93E0A0E0B0E0880D991DAA1DBB1D2D
:1050A0008093BF029093C002A093C102B093C2024A
:1050B000022F017010E024E2209FC001219F900D7B
:1050C000901B112480599C4F9C838B8382E390E03A
:1050D0009A838983BE016D5F7F4FCE0101960E9446
:1050E000FEBD8091C3028F5F8093C3020F900F902B
:1050F0000F900F90DF91CF911F910F91FF90BF9074
:10510000AF909F908F900895AF92BF92CF92DF9211
:10511000EF920F931F93CF93DF93CDB7DEB76097D6
:105120000FB6F894DEBF0FBECDBF5C018B010E94AD
:10513000DC17E0905F0C8EE3C82E8CE0D82E84E064
:10514000E89EF0011124E05EFE4F20813181428112
:105150005381F50160817181828193810E94EBF618
:10516000F60124853585468557850E9468F6F60147
:1051700064877587868797871D861E861F86188A8F
:1051800080819181A281B38189839A83AB83BC831F
:1051900084819581A681B7818D839E83AF83B887F3
:1051A00080859185A285B38589879A87AB87BC87DF
:1051B000AE01475F5F4FBE016B5F7F4FCE0101962F
:1051C0000E9416A0CE010D966C012AE43CE0AE01CF
:1051D000475F5F4FBE016B5F7F4F0C970E944C9102
:1051E0000E94E6170E94899E60960FB6F894DEBF73
:1051F0000FBECDBFDF91CF911F910F91EF90DF9048
:10520000CF90BF90AF900895CF93DF93EB01682FBD
:1052100070E086EA9FE00E946C8E688179818A81C5
:105220009B81643671058105910520F464E670E088
:1052300080E090E00E9417CC86B182958170DF916A
:10524000CF910895CF93DF9300D000D0CDB7DEB7D4
:105250008EEE92E0A0E0B0E089839A83AB83BC83BA
:10526000BE016F5F7F4F8AE50E9404290F900F9067
:105270000F900F90DF91CF910895CF93DF9300D0DF
:1052800000D0CDB7DEB78EEE92E0A0E0B0E089832B
:105290009A83AB83BC83BE016F5F7F4F8AE00E941D
:1052A00004290F900F900F900F90DF91CF910895E8
:1052B0002F923F924F925F926F927F928F929F9226
:1052C000AF92BF92CF92DF92EF92FF920F931F9314
:1052D000CF93DF93CDB7DEB72A970FB6F894DEBF32
:1052E0000FBECDBF2B013C012D833E834F835887DA
:1052F00047015801DA86C98680915601909157017D
:10530000A0915801B091590189839A83AB83BC83E2
:10531000D6011C9111960C91119712963C90129700
:1053200013962C9020E030E0A901612F702F832D7F
:10533000922D0E9410F281110AC0E8E9FCE08591EB
:105340009591A591B491182F092F3A2E2B2EA501D6
:10535000940160917F0C7091800C8091810C9091F0
:10536000820C0E9410F287FF16C0812F902FA32D70
:10537000B22D8093560190935701A0935801B0939A
:10538000590180927F0C9092800CA092810CB09277
:10539000820C0E944F18E985FA85C080D180E28096
:1053A000F38020E030E0A901C701B6010E9410F2AD
:1053B000811108C0C0905201D0905301E090540177
:1053C000F0905501C0925601D0925701E0925801D9
:1053D000F09259014092770C5092780C6092790CBF
:1053E00070927A0C8D819E81AF81B88580937B0C01
:1053F00090937C0CA0937D0CB0937E0C0E944F1870
:10540000A501940160917F0C7091800C8091810CBA
:105410009091820C0E94EBF71816B4F4812F902F14
:10542000A32DB22D8093560190935701A09358015C
:10543000B093590180927F0C9092800CA092810CC5
:10544000B092820C0E944F180E94899E89819A8195
:10545000AB81BC818093560190935701A093580172
:10546000B09359012A960FB6F894DEBF0FBECDBF98
:10547000DF91CF911F910F91FF90EF90DF90CF9030
:10548000BF90AF909F908F907F906F905F904F9064
:105490003F902F900895CF92DF92EF92FF920F935B
:1054A0001F936A01E0907F0CF090800C0091810CBA
:1054B0001091820CFB012081318142815381FC01DA
:1054C00060817181828193810E9458291F910F917F
:1054D000FF90EF90DF90CF900895CF92DF92EF9200
:1054E000FF920F931F936B01FC01E080F18002811A
:1054F0001381E7E7FCE02481358146815781608193
:105500007181828193810E9458291F910F91FF9090
:10551000EF90DF90CF900895BF92CF92DF92EF92FD
:10552000FF920F931F93CF93DF93CDB7DEB72897EA
:105530000FB6F894DEBF0FBECDBF9091860A9817C4
:1055400009F478C0B82E80E090E0A0E2B1E48D8349
:105550009E83AF83B887C090730CD090740CE0909A
:10556000750CF090760C20E030E0A901C701B6017F
:105570000E9410F287FF0CC0A701960160E070E066
:1055800080E291E40E9467F66D837E838F83988723
:1055900020E030E046E953E46D817E818F8198857B
:1055A0000E94EBF7181644F480E090E0A6E9B3E41B
:1055B0008D839E83AF83B8872D813E814F8158852F
:1055C00060917F0C7091800C8091810C9091820C85
:1055D0000E9410F287FF0BC019821A821B821C8264
:1055E000BE016F5F7F4FCE0105960E946D2A6091CC
:1055F000770C7091780C8091790C90917A0C2091B5
:105600007B0C30917C0C40917D0C50917E0C19826A
:105610001A821B821C82E0907F0CF090800C00911B
:10562000810C1091820CFE0131966F010E94582965
:10563000B092860A80E028960FB6F894DEBF0FBEBF
:10564000CDBFDF91CF911F910F91FF90EF90DF9031
:10565000CF90BF9008950F931F93CF93DF93CDB753
:10566000DEB72C970FB6F894DEBF0FBECDBFE7E7CD
:10567000FCE080859185A285B38544815581668152
:105680007781008111812281338109831A832B83E1
:105690003C834D835E836F83788789879A87AB8746
:1056A000BC87AE01475F5F4FBE016B5F7F4FCE018E
:1056B00001960E9416A023E83CE0AE01475F5F4FD1
:1056C000BE016B5F7F4FCE0101960E949A9E2C9681
:1056D0000FB6F894DEBF0FBECDBFDF91CF911F9103
:1056E0000F910895CF9380916F00C82FC27081FFF2
:1056F00005C080916F008D7F80936F0080915C0F5B
:1057000080935B0F80935A0F8093590F84E68093A8
:10571000580F0E94F7A088EE93E090932809809399
:105720002709CC2329F080916F00826080936F005D
:1057300081E0809325090E94899E0E94A6188AE92B
:1057400093E00E94E09F8CE0EAE9F3E0A7E7BCE089
:1057500001900D928A95E1F7CF910C942B2B3F92FB
:105760004F925F926F927F928F929F92AF92BF9271
:10577000CF92DF92EF92FF920F931F93CF93DF931D
:10578000CDB7DEB764970FB6F894DEBF0FBECDBFBE
:105790002A013B01C02E312ED22EF32E082F10E00D
:1057A000F801E352F34FE491AA24A3941E160CF4DB
:1057B000A12CBB24B39420E030E0A901C301B201C5
:1057C0000E94EBF718160CF0B12C000F111F000F00
:1057D000111FC8018958934F4C01FC01108211829E
:1057E000128213820E942B2BF4014082518262822A
:1057F0007382E0905F0C20E030E0A9016C2D732DE6
:105800008D2D9F2D0E9410F281110BC0F801E057E1
:10581000F34F85919591A591B491C82E392EDA2E2A
:10582000FB2E8C2D932DAD2DBF2D898B9A8BAB8BA1
:10583000BC8B80917F0C9091800CA091810CB091D9
:10584000820C40917B0C50917C0C60917D0C70918E
:105850007E0C0091770C1091780C2091790C30918E
:105860007A0C09831A832B833C834D835E836F8379
:10587000788789879A87AB87BC871D861E861F8697
:10588000188AAE01475F5F4FBE016B5F7F4FCE014D
:1058900001960E9416A0CE010D966C018E010F5E3E
:1058A0001F4F23E83CE0AE01475F5F4FBE016B5FD7
:1058B0007F4F0C970E944C910E94899EAB100E94D2
:1058C000EDA864960FB6F894DEBF0FBECDBFDF9192
:1058D000CF911F910F91FF90EF90DF90CF90BF90ED
:1058E000AF909F908F907F906F905F904F903F9080
:1058F00008951F93CF93DF93CDB7DEB72C970FB6E4
:10590000F894DEBF0FBECDBF882331F02091D903BC
:105910003091DA03232B81F190918F0C981761F16C
:10592000182F0E94899E8CE0EBE5F1E0DE011196D4
:1059300001900D928A95E1F7CE0101960E94E32530
:1059400010938F0C111122C00E94A6188AE993E0CF
:105950000E94E09F8091A2039091A303A091A403D1
:10596000B091A50380937F0C9093800CA093810C41
:10597000B093820C0E942B2B2C960FB6F894DEBFAE
:105980000FBECDBFDF91CF911F91089587E79CE0B7
:105990000E94E09FEFCF80E00E94792C1092DC0300
:1059A0001092DB031092DA031092D9031092D20303
:1059B0001092D1031092D0031092CF03EDEDF3E0DB
:1059C00021E034E080E090E0A0ECBFE780839183A9
:1059D000A283B38384839583A683B78380879187CB
:1059E000A287B3873C962E173F0781F708951F9330
:1059F000CF93DF93CDB7DEB728970FB6F894DEBF0D
:105A00000FBECDBF69837A838B839C832D833E83B6
:105A10004F8358870E943D29BE016B5F7F4FCE01A7
:105A200001960E946D2A8091980A182F147082FDA9
:105A30000E9422291092980A0E94A6188AE993E0EF
:105A40000E94E09F8091A2039091A303A091A403E0
:105A5000B091A50380937F0C9093800CA093810C50
:105A6000B093820C0E942B2B81E0111180E02896CC
:105A70000FB6F894DEBF0FBECDBFDF91CF911F915F
:105A800008958F929F92AF92BF92CF92DF92EF9242
:105A9000FF92CF93DF93EC018090900C9090910C4B
:105AA000A090920CB090930C20E030E0A901C501C9
:105AB000B4010E9410F2882309F454C0C880D98030
:105AC000EA80FB80A7019601C501B4010E9410F293
:105AD00018160CF04CC02091870C3091880C409126
